:100000000C9430000C944D000C944D000C944D0059
:100010000C944D000C944D000C944D000C944D002C
:100020000C944D000C944D000C944D000C944D001C
:100030000C944D000C944D000C944D000C944D000C
:100040000C944D000C944D000C944D000C944D00FC
:100050000C944D006364696E6F70737578585B0023
:1000600011241FBECFE5D4E0DEBFCDBF10E0A0E677
:10007000B0E0E0EDFEE002C005900D92A43CB107B7
:10008000D9F710E0A4ECB0E001C01D92A63DB10785
:10009000E1F70E9491010C9466070C9400001F93F5
:1000A000182F8A3019F48DE00E944F005D9BFECF1F
:1000B0001CB980E090E01F9108955F9BFECF8CB14A
:1000C00008951ABA8FEF8BBB87BB18BA84BB85BB68
:1000D0008EEF81BB80E982BB089580E888B910BEAD
:1000E00008951BB880E18AB986E880BD81E080BDB3
:1000F00080EA89B98AB188618AB980B5866880BD8D
:1001000087EA90E09093D1008093D00085EB90E057
:100110009093D3008093D200089508958CE189BF15
:1001200008958BE483BF12BE86E98CBF089581E0F9
:100130008FBD8AE08EBD1DBC1CBC17BC16BC1BBC91
:1001400082E38ABD19BC88BD089512BC8CE485BDCC
:1001500014BC88EC83BD08951DB81EB8089511B86D
:1001600010B812B816BE089580E687B983E886B93C
:100170000895FC012081413049F481E090E002C003
:10018000880F991F6A95E2F7282B09C081E090E05B
:1001900002C0880F991F6A95E2F780952823208373
:1001A0000895FC0181E090E002C0880F991F6A95D4
:1001B000E2F7E081E82309F0E1E08E2F089590E076
:1001C000882309F491E0892F0895EF92FF920F930D
:1001D0001F93CF93DF93E82EFF24C62FD0E0870133
:1001E000000F111FF801ED59FF4FD701A559BF4F5F
:1001F0009E0129573F4F808191816C91F901408187
:100200000E94B90005581F4F83E890E0E80EF91EE0
:10021000C557DF4FF80180819181F70160814881E6
:100220000E94B900DF91CF911F910F91FF90EF9045
:100230000895806687B98AE18A95F1F7369A349BEA
:10024000FECF349A85B1089580E061E00E94E50018
:1002500083E061E00E94E500089580E062E00E9492
:10026000E50083E062E00E94E500089580E063E03D
:100270000E94E50083E063E00E94E500089580E0CD
:1002800061E00E94E50083E063E00E94E5000895DC
:1002900080E062E00E94E50083E063E00E94E50008
:1002A000089580E063E00E94E50083E061E00E9441
:1002B000E500089580E063E00E94E50083E062E0ED
:1002C0000E94E500089580E061E00E94E50083E07F
:1002D00062E00E94E500089580E062E00E94E5008F
:1002E00083E061E00E94E500089581E061E00E9402
:1002F000E500089581E063E00E94E50008958FEF36
:1003000081BB82E390E063E041E00E94B900089580
:1003100087EF81BB82E390E063E040E00E94B90098
:100320000895BF92CF92DF92EF92FF920F931F93A7
:10033000DF93CF9300D0CDB7DEB719820E94610062
:100340000E94710080E687B983E886B9789400E658
:1003500010E06E010894C11CD11C30E2E32E3EE493
:10036000F32E2AEAB22E00D000D0EDB7FEB71283EA
:100370000183D482C3820E941304C7010197F1F75D
:100380000F900F900F900F908981883609F461C00B
:10039000893680F48436B1F1853630F48136F1F057
:1003A000823609F09BC01EC0853699F1873609F068
:1003B00095C052C08E36E1F18F3638F48A3609F492
:1003C0004EC08D3609F08AC02BC0813769F1823763
:1003D00009F481C0803709F081C02EC018BA0E948C
:1003E00024012DC018BA0E942D0188E390E065E039
:1003F00041E00E94B90088E390E066E041E00E949D
:10040000B900B1CF18BA0E946C0188E390E064E0B3
:10041000F5CF18BA0E94630188E390E060E0EECF68
:1004200018BA0E943F010BC018BA0E94510107C0C0
:1004300018BA0E94480103C018BA0E945A0188E302
:1004400090E061E041E00E94B90088E390E062E062
:10045000D5CF0E94740287CF0E94750184CF198284
:10046000680192E0E92EF12CEC0EFD1E08EC10E084
:1004700000D000D0EDB7FEB7C182D282F482E38211
:100480000E9413040F900F900F900F908A81823773
:1004900011F40E9491016981677088E390E041E066
:1004A0000E94B90088EE93E0F8013197F1F70197C7
:1004B000D9F76981677088E390E040E00E94B90055
:1004C00088EE93E0F8013197F1F70197D9F7898128
:1004D0008F5F8983CDCF0E94910145CF0E94360165
:1004E0000E947A01B8BA3FCFEF92FF920F931F9309
:1004F000CF93DF930E9436018FEF88BB84E68ABDDD
:1005000088BD00E610E0C6ECD0E014C000D000D0FA
:10051000EDB7FEB712830183D483C3830E94130413
:100520000F900F900F900F908091C600823711F4BA
:100530000E94910180E00E941901813818F181E048
:100540000E9419018138F0F082E00E94190181387F
:10055000C8F083E00E9419018138A0F084E00E9475
:100560001901813878F085E00E941901813850F036
:1005700086E00E941901813828F087E00E94190165
:10058000813820F618BA40E6E42E40E0F42E06EC5E
:1005900010E0C8ECD0E000D000D0EDB7FEB7F2829A
:1005A000E182148303830E9413040F900F900F9035
:1005B0000F908091C600823711F40E94910182E071
:1005C0000E94190187FD1EC018BA88E390E062E01E
:1005D00041E00E94B9000E94240180ED97E0FE01F5
:1005E0003197F1F70197D9F70E9436010E948801EF
:1005F0000E94750180E29EE4FE013197F1F70197B8
:10060000D9F70CC181E00E94190187FD1EC018BAFC
:1006100088E390E061E041E00E94B9000E9424017B
:1006200080ED97E0FE013197F1F70197D9F70E942D
:1006300036010E9488010E94750180E29EE4FE015D
:100640003197F1F70197D9F7E9C080E00E941901CD
:1006500087FD22C018BA88E390E060E041E00E9484
:10066000B9000E94630181E00E9419018138D8F726
:1006700088E390E061E041E00E94B9000E94360109
:100680000E9488010E94750180E29EE4FE0131977C
:10069000F1F70197D9F7C2C087E00E94190187FDE1
:1006A00022C018BA88E390E067E041E00E94B900F8
:1006B0000E94630181E00E9419018138D8F788E324
:1006C00090E061E041E00E94B9000E9436010E9482
:1006D00088010E94750180E29EE4FE013197F1F7E6
:1006E0000197D9F79BC083E00E94190187FD22C0C2
:1006F00018BA88E390E063E041E00E94B9000E94EC
:100700006C0182E00E9419018138D8F788E390E0FB
:1007100062E041E00E94B9000E9436010E94880117
:100720000E94750180E29EE4FE013197F1F7019786
:10073000D9F774C084E00E94190187FD22C018BA5D
:1007400088E390E064E041E00E94B9000E946C01FF
:1007500082E00E9419018138D8F788E390E062E0D6
:1007600041E00E94B9000E9436010E9488010E9467
:10077000750180E29EE4FE013197F1F70197D9F708
:100780004DC085E00E94190187FD22C018BA88E398
:1007900090E065E041E00E94B9000E946C0182E0B7
:1007A0000E9419018138D8F788E390E062E041E0C7
:1007B0000E94B9000E9436010E9488010E947501C2
:1007C00080E29EE4FE013197F1F70197D9F726C048
:1007D00086E00E94190187FD23C018BA88E390E0E3
:1007E00066E041E00E94B9000E94630181E00E943E
:1007F00019018138D8F788E390E061E041E00E9478
:10080000B9000E9436010E9488010E94750180E2B1
:100810009EE4FE013197F1F70197D9F70E947A0122
:100820000E948801B8CEA0E0B0E0E9E1F4E00C94C9
:100830003F07FE013596619171918091D0009091B2
:10084000D100AF010E94AC052096E2E00C945B075A
:10085000FC0120FD08C023FD05C022FF02C07383F8
:100860006283518340830895EF92FF920F931F9309
:1008700044FF02C033E011C046FF02C034E00DC0A7
:10088000DB01FC01AA0FBB1FEE1FFF1F1094D1F765
:100890006A0F7B1F8E1F9F1F31E0660F771F881F17
:1008A000991F3150D1F77B018C01E20EF11C011D23
:1008B000111DA8019701B701CA011F910F91FF9067
:1008C000EF9008950F931F93CF93DF938C01C8018E
:1008D0000E94D006EC0197FD08C00E94BD06892B3E
:1008E000B1F7CE01B8010E941207CE01DF91CF917E
:1008F0001F910F910895A0E0B0E0E1E8F4E00C94BE
:100900003707EC01C62E5A01122F0E94D006AC0107
:100910008B3219F08D3251F41068CA9409F46DC00D
:10092000CE010E94D006AC0197FD67C06DEFD62EB8
:10093000D1228D2D807301F54033F1F4CA9409F46E
:1009400047C0CE010E94D006AC0197FD41C082E0B5
:10095000D82A483711F0483559F480E4D82ACA9487
:10096000B9F1CE010E94D006AC0199232CF430C01D
:10097000D6FC02C080E1D82AEE24FF248701242F70
:100980002053283088F0D4FC09C02A3068F0D6FE05
:1009900005C02F7D822F8151863028F0CA01BE010B
:1009A0000E94120712C02750C801B7014D2D0E94A6
:1009B00034047B018C0182E0D82ACA9461F0CE0114
:1009C0000E94D006AC0197FFDACFD1FC04C015C05D
:1009D000EE24FF248701D7FE08C010950095F094FF
:1009E000E094E11CF11C011D111DC501B801A70116
:1009F0002D2D0E94280481E001C080E0CDB7DEB734
:100A0000EAE00C945307A0E2B0E0E9E0F5E00C94D2
:100A100033076C01A62E8A017901FE01319680E22E
:100A2000DF011D928A95E9F770E030E060E040E078
:100A300050E04F01A1E0B0E0F6018381F70183FDB2
:100A4000259183FF21917F01222309F47EC02E3559
:100A500019F44115510569F1872F90E08417950726
:100A600044F42D3551F12D3221F4332329F431E0B2
:100A700021C0332309F4622F322F832F8695869568
:100A80008695F401E80FF11D832F87703D0102C0A8
:100A9000660C771C8A95E2F7208126292083361779
:100AA00011F430E007C0361710F43F5FE6CF315045
:100AB000E4CF71E04F5F5F4FBFCF332319F08E81DA
:100AC00080628E83772359F0FE0131969E012F5D5F
:100AD0003F4F808180958193E217F307D1F7BB24C4
:100AE000B3944E010894811C911CC6010E94D0064B
:100AF000AC0197FD22C0869586958695F401E80F96
:100B0000F11D808190E09A012770307002C09595A8
:100B100087952A95E2F780FD05C0CA01B6010E94BB
:100B200012070BC00115110519F0D8014D938D0165
:100B3000AA94BB24AA20C9F602C0BB2031F4011537
:100B4000110529F0F801108202C0EE24FF24C7012C
:100B5000A096EEE00C944F07A0E0B0E0E2EBF5E0E9
:100B60000C9433075C016B013A01FC011782168279
:100B70008824EAC0812F90E00E94BD06892B21F0D5
:100B8000C5010E946204E0C0153249F4F601F3FC8D
:100B90006591F3FE61916F01653269F415E2C5015B
:100BA0000E94D00697FDDCC0181709F4CDC0B5012E
:100BB0000E941207DAC06A3219F0162F00E006C050
:100BC000F3FC1591F3FE11916F0101E099240FC020
:100BD0000260692D70E080E090E040E20E94340401
:100BE000962EF601F3FC1591F3FE11916F01212F62
:100BF00020532A3068F301FD03C099249A9403C05E
:100C0000992009F4B2C0183621F01C3699F4F60187
:100C10000BC0F601F3FC6591F3FE6191683619F0A3
:100C20006F01162F07C008600460F3FC1591F3FEF6
:100C300011916F01112309F498C084E590E0612FB0
:100C400070E00E94C506892B09F48FC0802F00FF39
:100C500003C0EE24FF2407C0F301E080F18022E00E
:100C600030E0620E731E1E3651F4F5014681578145
:100C700060E070E0C701202F0E94280465C0133691
:100C800091F481FD02C099249394C5010E94D0067D
:100C900097FD66C0E114F10419F0F70181937F011B
:100CA0009A9499F74FC01B3559F4C501692DA701D6
:100CB00096010E9403056C01009709F043C03DC0F6
:100CC000C5010E94620497FD4BC01F3659F11037D1
:100CD00028F4143629F1193639F527C0133719F0DD
:100CE000153711F51DC0C5010E94D006EC0197FD16
:100CF00011C00E94BD06892B29F0CE01B5010E94CA
:100D0000120708C0E114F10419F0F701C1937F0143
:100D10009A9449F7E114F104A9F0F701108212C086
:100D2000006203C0006101C00064C501692DA70114
:100D3000202F0E947B04882329F4F501838180738E
:100D400079F413C000FF8394F501F380F601F3FCFE
:100D50001591F3FE11916F01112309F00BCF05C01E
:100D6000882019F42FEF3FEF02C0282D30E0C90191
:100D7000CDB7DEB7EEE00C944F0791116DC0803215
:100D800019F089508550D0F70895FC01059006169A
:100D900021F00020D9F7C00108953197CF010895BF
:100DA000CF93DF93EC014B8140FF1AC046FF0AC08E
:100DB0004F7B4B838E819F8101969F838E838A8197
:100DC000282F2BC042FF13C0E881F9818081282F92
:100DD000332727FD30952115310529F440624B83D7
:100DE0002FEF3FEF1BC03196F983E88311C0EA85EE
:100DF000FB85CE0109959C0197FF0AC09B812F5F5F
:100E00003F4F11F080E201C080E1892B8B83E8CF56
:100E10008E819F8101969F838E8330E0C901DF918F
:100E2000CF9108959C01FB01838180FF11C086FD55
:100E30000FC09FEF2F3F390759F0228380648F7DC9
:100E400083838681978101979783868330E002C0F0
:100E50002FEF3FEFC90108959927882708952F9212
:100E60003F924F925F926F927F928F929F92AF923A
:100E7000BF92CF92DF92EF92FF920F931F93CF9387
:100E8000DF93CDB7DEB7CA1BDB0B0FB6F894DEBF1E
:100E90000FBECDBF09942A88398848885F846E8444
:100EA0007D848C849B84AA84B984C884DF80EE808E
:100EB000FD800C811B81AA81B981CE0FD11D0FB697
:100EC000F894DEBF0FBECDBFED010895F894FFCFBB
:100ED0002563003500350035003200020500063577
:100EE00000350035003200040701043500350032BA
:100EF000003200030607050001000100000101386F
:100F00000038003800380038003800380038000059
:100F100001020304050607000000010000000000B4
:100F2000005D00000000000002000000004F000013
:040F300000000000BD
:00000001FF
