:100000000C942A000C9447000C9447000C94470071
:100010000C9447000C9447000C9447000C94470044
:100020000C9447000C9447000C9447000C94470034
:100030000C9447000C9447000C9447000C94470024
:100040000C9447000C9447000C9447000C94470014
:100050000C94470011241FBECFE5D4E0DEBFCDBF16
:1000600010E0A0E6B0E0E2E0F3E002C005900D92FF
:10007000A43BB107D9F710E0A4EBB0E001C01D929A
:10008000AF3BB107E1F70E94DE000C947F010C94B6
:1000900000001F93182F8A3019F48DE00E94490048
:1000A0005D9BFECF1CB980E090E01F9108955F9B9F
:1000B000FECF8CB1089517BA9FEF98BB14BA95BBC9
:1000C00082E081BB92BB089580E888B910BE089594
:1000D0001BB888E08AB986E880BD81E080BD80EAEF
:1000E00089B98AB188618AB980B5866880BD88E996
:1000F00090E09093BA008093B90086EA90E09093E4
:10010000BC008093BB000895089519BE089513BEE6
:1001100012BE08951FBC1EBC1DBC1CBC17BC16BC67
:100120001BBC1ABC19BC18BC089512BC15BC14BC6D
:1001300013BC08951DB81EB8089511B810B812B8B0
:1001400016BE089580E687B983E886B90895FC0154
:100150002081413049F481E090E002C0880F991F6E
:100160006A95E2F7282B09C081E090E002C0880F71
:10017000991F6A95E2F78095282320830895FC0152
:1001800081E090E002C0880F991F6A95E2F7E08154
:10019000E82309F0E1E08E2F089590E0882309F428
:1001A00091E0892F0895806687B98AE18A95F1F7F1
:1001B000369A349BFECF349A85B108950F931F93DE
:1001C000CF93DF930E945B0080E687B983E886B90E
:1001D0000E9468007894C0E2DEE480E00E94D300D0
:1001E000082F81E00E94D300982F80B384FD4BC07C
:1001F00088E690E00E944C0118E63DC082E790E05E
:100200000E944C0112E737C087E690E00E944C0143
:1002100017E631C08AE690E00E944C011AE62BC036
:10022000923310F411E627C0023340F4993C10F0E9
:1002300012E621C0923310F415E61DC0093C20F0EF
:10024000993C10F014E617C0802F8253873938F09C
:10025000023308F410E7093C70F011E70CC0892F55
:100260008253873910F413E606C0923308F41DE672
:10027000993C08F01EE6CE010197F1F7812F90E03E
:100280000E944C01AACF83FFB9CF85FFBDCF86FF67
:10029000C1CF093C48F2C4CF6091BB007091BC0053
:1002A0000E94530108950F931F93CF93DF938C0106
:1002B000EB018B8181FF1BC082FF0DC02E813F812E
:1002C0008C819D812817390764F4E881F9810193B5
:1002D000F983E88306C0E885F985802F0995892B85
:1002E00031F48E819F8101969F838E8302C00FEF30
:1002F0001FEFC801DF91CF911F910F910895F894DE
:02030000FFCF2D
:1003020035003500320035000305050235003500A1
:100312003200320004070403320035003200350097
:100322000706060100010001000001013800380043
:100332003800380000010203000000010000000044
:100342000000570000000000000200000000490009
:0403520000000000A7
:00000001FF
